:1000000012C0189518951895189518951895189563
:100010001895189518951895189518951895189578
:100020001895189518958FE58DBFC0E4E8E34E2E1E
:1000300084E08EBFD4E0F4E05F2EA89584B7082E4C
:10004000877F84BF88E1992781BD91BDEEEFF3E002
:10005000A0E6B0E088278D933197E9F783E389B96B
:1000600080E080BD88E18AB966248FEF87BB8D9AD6
:100070008E9A8F9AA198A298A39886E886B980E470
:1000800087B9379A88EE93E0A4E6B0E08D939C930D
:1000900081E080938300009183000A3010F009F022
:1000A00015C0C39AC49AC59896988AEF90E0E1D497
:1000B000C398C498C59A969A8AEF90E0DAD4A3E8D8
:1000C000B0E08C918F5F8C9308F4E5CF70E078BB43
:1000D000969897989598A9D4A6E8B0E08C9300914B
:1000E0008600013009F005C0A4D4A7E8B0E08C93E5
:1000F00001C006C0009187000A3209F001C09FC20A
:1001000082E08093830000918300043010F009F0B6
:100110005DC0A3E8B0E0AD90BB24A9E7B0E0AA0CB5
:10012000BB1CAA0DBB1D0D911C91013050E01507A1
:1001300009F045C087E68093A300A4E8B0E0E3E8B7
:10014000F0E0E7D4A4E8B0E041D5082F023008F091
:1001500017C083E0A2D4E4E8F0E0A881B98122D5F9
:10016000A4E8B0E0EAE0FCE09ED4E881F981A4E8EC
:10017000B0E03FD417D583E0481A80E0580A2296B1
:10018000A6E6B0E0ECE0FCE08ED4E4E8F0E0A6E621
:10019000B0E02FD407D5A6E6B0E02BD4E4E1FCE034
:1001A00082D4A6E6B0E04FD4A6E6B0E092D4082F01
:1001B000A0E2B4E0E0E1F0E0ACD443D44AD4A3E858
:1001C000B0E08C918F5F8C9308F49DCFABE7B0E0EB
:1001D0000D911C91013050E0150709F042C007B1A4
:1001E000007F006007B964D4A0E6B0E08D939C93D3
:1001F000A0E6B0E00D911C91073E53E0150710F00A
:1002000009F001C006C087EE93E0A0E6B0E08D9350
:100210009C9387E68093A300A6E6B0E0E8E1FCE0CB
:1002200042D4A6E6B0E0E5D3E0E6F0E066D4A6E688
:10023000B0E0DFD3E2E2FCE036D4A6E6B0E003D4DF
:10024000A6E6B0E046D4082FA0E2B4E0E0E1F0E09A
:1002500060D4F7D3FED380E090E0ABE7B0E08D93BD
:100260009C93999925C0ADE7B0E00D911C910030A9
:1002700050E0150709F016C087E68093A300A6E6B4
:10028000B0E0E4E2FCE00FD4A6E6B0E0DCD3A6E602
:10029000B0E01FD4082FA0E2B4E0E0E1F0E039D4F0
:1002A000D0D3D7D384EC99E0ADE7B0E08D939C93A5
:1002B0009A9925C0AFE7B0E00D911C91003050E055
:1002C000150709F016C087E68093A300A6E6B0E004
:1002D000E0E3FCE0E8D3A6E6B0E0B5D3A6E6B0E004
:1002E000F8D3082FA0E2B4E0E0E1F0E012D4A9D303
:1002F000B0D38AEF90E0AFE7B0E08D939C939B99E9
:1003000025C0A1E8B0E00D911C91003050E0150728
:1003100009F016C087E68093A300A6E6B0E0ECE300
:10032000FCE0C1D3A6E6B0E08ED3A6E6B0E0D1D320
:10033000082FA0E2B4E0E0E1F0E0EBD382D389D370
:100340008AEF90E0A1E8B0E08D939C9382E08093E7
:10035000830000918300043010F009F025C0A3E869
:10036000B0E0AD90BB24A9E7B0E0AA0CBB1CAA0D7D
:10037000BB1D0D911C91003050E0150714F009F0E1
:1003800001C00BC0A3E8B0E0AD90BB24A9E7B0E08A
:10039000AA0CBB1CAA0DBB1D25D3A3E8B0E08C9111
:1003A0008F5F8C9308F4D5CF81E08093AD000091EE
:1003B000AD00023010F009F025C0ADEAB0E0AD901C
:1003C000BB24A7EAB0E0AA0CBB1CAA0DBB1D0D9173
:1003D0001C91003050E0150710F009F001C00BC06F
:1003E000ADEAB0E0AD90BB24A7EAB0E0AA0CBB1C1C
:1003F000AA0DBB1DF7D2ADEAB0E08C918F5F8C9354
:1004000008F4D5CF0091A400013081E009F080E02C
:100410008F93A9EAB0E00D911C91003050E01507D0
:1004200081E009F080E09F918923882309F406C0C8
:1004300088EE93E0A9EAB0E08D939C930091A5002B
:10044000013081E009F080E08F93ABEAB0E00D91DC
:100450001C91003050E0150781E009F080E09F9189
:100460008923882309F406C080E197E2ABEAB0E073
:100470008D939C93A9EAB0E00D911C91083E53E046
:10048000150709F001C0C09AA9EAB0E00D911C91CE
:10049000013050E0150709F023C0C09880E0809338
:1004A000A400A6E6B0E0E8E4FCE0FDD2A6E6B0E0F9
:1004B000A0D2E4EAF0E02DD3A6E6B0E09AD2E2E2E0
:1004C000FCE0F1D2A6E6B0E0BED2A6E6B0E001D3F1
:1004D000082FA0E2B4E0E0E1F0E01BD3B2D2B9D241
:1004E000ABEAB0E00D911C91003157E2150709F01D
:1004F00001C0C19AABEAB0E00D911C91013050E00F
:10050000150709F023C0C19880E08093A500A6E6F6
:10051000B0E0E2E5FCE0C7D2A6E6B0E06AD2E5EAE8
:10052000F0E0F7D2A6E6B0E064D2E2E2FCE0BBD2B3
:10053000A6E6B0E088D2A6E6B0E0CBD2082FA0E2D3
:10054000B4E0E0E1F0E0E5D27CD283D20091A300F8
:10055000003010F009F001C005C08091A300815067
:100560008093A3000091A300043609F001C0979A7C
:100570000091A300003009F001C09798A4E6B0E014
:100580000D911C91003050E0150714F009F001C0E6
:1005900003C0A4E6B0E026D2A4E6B0E00D911C9121
:1005A000003050E0150709F01CC087E68093A300D7
:1005B000A6E6B0E0ECE5FCE076D2A6E6B0E043D2F9
:1005C000A6E6B0E086D2082FA0E2B4E0E0E1F0E0D9
:1005D000A0D237D23ED280E29EE4A4E6B0E08D9372
:1005E0009C93A2E6B0E00D911C91003050E01507FD
:1005F00014F009F001C003C0A2E6B0E0F3D1A2E616
:10060000B0E00D911C91043F51E0150709F001C0C5
:10061000959AA2E6B0E00D911C91003050E01507CC
:1006200009F007C0959884E398E0A2E6B0E08D93C6
:100630009C9381E090E01DD24ECDF894FFCFE2D2A2
:10064000A8E8B0E0EFE0DED1DAD2E8E8F0E003E0DD
:10065000A8E9B0E0B3D285E0E8E8F0E001E00A9371
:10066000ACE9B0E0A4D287E0E8E8F0E002E00A9369
:10067000AEE9B0E09CD28AE0E8E8F0E001E00A935D
:10068000A1EAB0E094D2A8E9B0E0E8E6FCE0A4D2A8
:1006900009F0A5C1ACE9B0E0ECE6FCE09DD209F0C0
:1006A00042C187E68093A300AEE9B0E0EEE6FCE04D
:1006B00093D209F034C0A1EAB0E0E2E7FCE08CD2CA
:1006C00009F003C081E08093A400A1EAB0E0EAE071
:1006D000FCE082D209F003C080E08093A400A6E68B
:1006E000B0E0E8E4FCE0DFD1A6E6B0E082D1E4EAE5
:1006F000F0E00FD2A6E6B0E07CD1E2E2FCE0D3D19C
:10070000A6E6B0E0A0D1A6E6B0E0E3D1082FA0E2D3
:10071000B4E0E0E1F0E0FDD194D19BD104C1E4E785
:10072000FCE05AD209F034C0A1EAB0E0E2E7FCE014
:1007300053D209F003C081E08093A500A1EAB0E0A4
:10074000EAE0FCE049D209F003C080E08093A50014
:10075000A6E6B0E0E2E5FCE0A6D1A6E6B0E049D12D
:10076000E5EAF0E0D6D1A6E6B0E043D1E2E2FCE073
:100770009AD1A6E6B0E067D1A6E6B0E0AAD1082FEC
:10078000A0E2B4E0E0E1F0E0C4D15BD162D1CBC043
:10079000E8E7FCE021D209F035C0A1EAB0E0E2E7E9
:1007A000FCE01AD209F001C0C29AA1EAB0E0EAE086
:1007B000FCE012D209F001C0C298A6E6B0E0ECE776
:1007C000FCE071D1A8E3B0E08C9182FBA6E6B0E03A
:1007D00010D17BD18D9388278C93A6E6B0E009D108
:1007E000E2E2FCE060D1A6E6B0E02DD1A6E6B0E002
:1007F00070D1082FA0E2B4E0E0E1F0E08AD121D18D
:1008000028D191C0E6E8FCE0E7D109F044C0A1EAB4
:10081000B0E0EAE8FCE0E0D109F005C0C49AC39872
:1008200082E08093A700A1EAB0E0E2E7FCE0D4D147
:1008300009F005C0C498C39A81E08093A700A1EA9B
:10084000B0E0EAE0FCE0C8D109F005C0C498C39864
:1008500080E08093A700A6E6B0E0ECE8FCE023D1BE
:10086000A6E6B0E0C6D0E7EAF0E053D1A6E6B0E0F5
:10087000C0D0E2E2FCE017D1A6E6B0E0E4D0A6E604
:10088000B0E027D1082FA0E2B4E0E0E1F0E041D1F0
:10089000D8D0DFD048C0E6E9FCE09ED109F043C0E3
:1008A000A1EAB0E0EAE8FCE097D109F005C0969A29
:1008B000C59882E08093A800A1EAB0E0E2E7FCE0FE
:1008C0008BD109F005C09698C59A81E08093A80065
:1008D000A1EAB0E0EAE0FCE07FD109F005C096981B
:1008E000C59880E08093A800A6E6B0E0EAE9FCE0C5
:1008F000DAD0A6E6B0E07DD0E8EAF0E00AD1A6E6DC
:10090000B0E077D0E2E2FCE0CED0A6E6B0E09BD04B
:10091000A6E6B0E0DED0082FA0E2B4E0E0E1F0E02F
:10092000F8D08FD096D0ACE9B0E0E4EAFCE054D146
:1009300009F055C0AEE9B0E0EEE6FCE04DD109F0BB
:1009400010C0ABE7B0E00D911C91003050E01507EE
:1009500009F006C081E090E0ABE7B0E08D939C9396
:100960003EC0E4E7FCE038D109F010C0ADE7B0E0EC
:100970000D911C91003050E0150709F006C082E08F
:1009800090E0ADE7B0E08D939C9329C0E8E7FCE0F0
:1009900023D109F010C0AFE7B0E00D911C910030F9
:1009A00050E0150709F006C082E090E0AFE7B0E044
:1009B0008D939C9314C0E6E8FCE00ED109F00FC0C3
:1009C000A1E8B0E00D911C91003050E0150709F04E
:1009D00006C082E090E0A1E8B0E08D939C9390CBBC
:1009E000F894FFCFED91FC91E150F040FC93EE9331
:1009F00008958F938D918823E9F711978F9108952A
:100A0000A0E2B4E01AD08D3039F0EE23D9F38D9303
:100A1000EA9563FE21D0F6CF63FC04C08DE01CD0C4
:100A20008AE01AD088278C93089581E05F9B8827FD
:100A3000089588275F9B089500C05F9BFECF8CB10F
:100A40000895A0E2B4E08D91882311F005D0FBCF8A
:100A500008958DE001D08AE05D9BFECF8CB90895AA
:100A60003197F1F70895689462F80895E89462F870
:100A70000895EF93FF93EE27E82BE92B31F0E0ED9B
:100A8000F7E03197F1F70197D1F7FF91EF910895D2
:100A90000191119121913081089599275A924A929A
:100AA000480E591E08950DD00D920020E1F70895CB
:100AB000369A3699FECF369A3699FECF84B195B1E3
:100AC0000895C89531960020089580E30EF483952B
:100AD000089588279D91890F9923E1F70895000FC4
:100AE000111F221F331F08950095109520953095F2
:100AF0000F5F1F4F2F4F3F4F0895019110810BC083
:100B0000C7DF0BC00191108117FF05C03FEF2FEF2A
:100B100004C0008111272227332737FF03C0E4DFF9
:100B20008DE28D93CF92DF92EF92AA24BB24CC2446
:100B3000DD24EE2440E2EAE0FF2755E093E38081E4
:100B4000890F87FD9F7083FD907F891B81935A9544
:100B5000A9F7C5DFAA1CBB1CCC1CDD1CEE1C4A95EA
:100B600051F7E894EFE0FF2782910CD0EB30E0F7EB
:100B70001EF068948A2D0AD088278D93EF90DF901D
:100B8000CF900895982F829501D0892F8F70805D26
:100B900026F0803309F4089568948D93089588278A
:100BA0008D93089581918D938823E1F7089509919C
:100BB0009191992351F08A95D9F73197002329F023
:100BC00081918D930A958823C9F7E9CF8FEF83959B
:100BD0009D919923E1F70895689401C0E894AF933B
:100BE000BF938D9116F0919102C06BDF902D891704
:100BF00018F011F48823A9F7BF91AF910895E894F4
:100C000063F80895689463F8089530003030343AFA
:100C1000693A00003A303A003030343A693A3031BB
:100C20003A003A003030343A693A30323A313A00D8
:100C30003030343A693A30333A313A003030343A6D
:100C4000693A30343A313A003030343A6F3A303120
:100C50003A003030343A6F3A30323A003030343A79
:100C6000733A30313A313A00303034006F0030316D
:100C70000000310030320000303300003030343AB0
:100C80006F3A30333A003034000032003030343ABA
:100C90006F3A30343A00303500003030343A6F3A31
:060CA00030353A00690046
:00000001FF
